{"abi":[{"type":"constructor","inputs":[],"stateMutability":"nonpayable"},{"type":"function","name":"approve","inputs":[{"name":"to","type":"address","internalType":"address"},{"name":"tokenId","type":"uint256","internalType":"uint256"}],"outputs":[],"stateMutability":"nonpayable"},{"type":"function","name":"balanceOf","inputs":[{"name":"owner","type":"address","internalType":"address"}],"outputs":[{"name":"","type":"uint256","internalType":"uint256"}],"stateMutability":"view"},{"type":"function","name":"batchMintReceipts","inputs":[{"name":"donors","type":"address[]","internalType":"address[]"},{"name":"donationIds","type":"uint256[]","internalType":"uint256[]"},{"name":"tokenURIs","type":"string[]","internalType":"string[]"}],"outputs":[],"stateMutability":"nonpayable"},{"type":"function","name":"burnReceipt","inputs":[{"name":"tokenId","type":"uint256","internalType":"uint256"}],"outputs":[],"stateMutability":"nonpayable"},{"type":"function","name":"donationToToken","inputs":[{"name":"","type":"uint256","internalType":"uint256"}],"outputs":[{"name":"","type":"uint256","internalType":"uint256"}],"stateMutability":"view"},{"type":"function","name":"getApproved","inputs":[{"name":"tokenId","type":"uint256","internalType":"uint256"}],"outputs":[{"name":"","type":"address","internalType":"address"}],"stateMutability":"view"},{"type":"function","name":"getDonationByToken","inputs":[{"name":"tokenId","type":"uint256","internalType":"uint256"}],"outputs":[{"name":"","type":"uint256","internalType":"uint256"}],"stateMutability":"view"},{"type":"function","name":"getReceiptByDonation","inputs":[{"name":"donationId","type":"uint256","internalType":"uint256"}],"outputs":[{"name":"","type":"uint256","internalType":"uint256"}],"stateMutability":"view"},{"type":"function","name":"isApprovedForAll","inputs":[{"name":"owner","type":"address","internalType":"address"},{"name":"operator","type":"address","internalType":"address"}],"outputs":[{"name":"","type":"bool","internalType":"bool"}],"stateMutability":"view"},{"type":"function","name":"isSoulbound","inputs":[{"name":"","type":"uint256","internalType":"uint256"}],"outputs":[{"name":"","type":"bool","internalType":"bool"}],"stateMutability":"view"},{"type":"function","name":"mintReceipt","inputs":[{"name":"donor","type":"address","internalType":"address"},{"name":"donationId","type":"uint256","internalType":"uint256"},{"name":"uri","type":"string","internalType":"string"}],"outputs":[{"name":"","type":"uint256","internalType":"uint256"}],"stateMutability":"nonpayable"},{"type":"function","name":"mintSoulboundReceipt","inputs":[{"name":"donor","type":"address","internalType":"address"},{"name":"donationId","type":"uint256","internalType":"uint256"},{"name":"uri","type":"string","internalType":"string"}],"outputs":[{"name":"","type":"uint256","internalType":"uint256"}],"stateMutability":"nonpayable"},{"type":"function","name":"name","inputs":[],"outputs":[{"name":"","type":"string","internalType":"string"}],"stateMutability":"view"},{"type":"function","name":"owner","inputs":[],"outputs":[{"name":"","type":"address","internalType":"address"}],"stateMutability":"view"},{"type":"function","name":"ownerOf","inputs":[{"name":"tokenId","type":"uint256","internalType":"uint256"}],"outputs":[{"name":"","type":"address","internalType":"address"}],"stateMutability":"view"},{"type":"function","name":"receiptExists","inputs":[{"name":"donationId","type":"uint256","internalType":"uint256"}],"outputs":[{"name":"","type":"bool","internalType":"bool"}],"stateMutability":"view"},{"type":"function","name":"renounceOwnership","inputs":[],"outputs":[],"stateMutability":"nonpayable"},{"type":"function","name":"safeTransferFrom","inputs":[{"name":"from","type":"address","internalType":"address"},{"name":"to","type":"address","internalType":"address"},{"name":"tokenId","type":"uint256","internalType":"uint256"}],"outputs":[],"stateMutability":"nonpayable"},{"type":"function","name":"safeTransferFrom","inputs":[{"name":"from","type":"address","internalType":"address"},{"name":"to","type":"address","internalType":"address"},{"name":"tokenId","type":"uint256","internalType":"uint256"},{"name":"data","type":"bytes","internalType":"bytes"}],"outputs":[],"stateMutability":"nonpayable"},{"type":"function","name":"setApprovalForAll","inputs":[{"name":"operator","type":"address","internalType":"address"},{"name":"approved","type":"bool","internalType":"bool"}],"outputs":[],"stateMutability":"nonpayable"},{"type":"function","name":"supportsInterface","inputs":[{"name":"interfaceId","type":"bytes4","internalType":"bytes4"}],"outputs":[{"name":"","type":"bool","internalType":"bool"}],"stateMutability":"view"},{"type":"function","name":"symbol","inputs":[],"outputs":[{"name":"","type":"string","internalType":"string"}],"stateMutability":"view"},{"type":"function","name":"tokenToDonation","inputs":[{"name":"","type":"uint256","internalType":"uint256"}],"outputs":[{"name":"","type":"uint256","internalType":"uint256"}],"stateMutability":"view"},{"type":"function","name":"tokenURI","inputs":[{"name":"tokenId","type":"uint256","internalType":"uint256"}],"outputs":[{"name":"","type":"string","internalType":"string"}],"stateMutability":"view"},{"type":"function","name":"totalSupply","inputs":[],"outputs":[{"name":"","type":"uint256","internalType":"uint256"}],"stateMutability":"view"},{"type":"function","name":"transferFrom","inputs":[{"name":"from","type":"address","internalType":"address"},{"name":"to","type":"address","internalType":"address"},{"name":"tokenId","type":"uint256","internalType":"uint256"}],"outputs":[],"stateMutability":"nonpayable"},{"type":"function","name":"transferOwnership","inputs":[{"name":"newOwner","type":"address","internalType":"address"}],"outputs":[],"stateMutability":"nonpayable"},{"type":"function","name":"updateTokenURI","inputs":[{"name":"tokenId","type":"uint256","internalType":"uint256"},{"name":"newURI","type":"string","internalType":"string"}],"outputs":[],"stateMutability":"nonpayable"},{"type":"event","name":"Approval","inputs":[{"name":"owner","type":"address","indexed":true,"internalType":"address"},{"name":"approved","type":"address","indexed":true,"internalType":"address"},{"name":"tokenId","type":"uint256","indexed":true,"internalType":"uint256"}],"anonymous":false},{"type":"event","name":"ApprovalForAll","inputs":[{"name":"owner","type":"address","indexed":true,"internalType":"address"},{"name":"operator","type":"address","indexed":true,"internalType":"address"},{"name":"approved","type":"bool","indexed":false,"internalType":"bool"}],"anonymous":false},{"type":"event","name":"BatchMetadataUpdate","inputs":[{"name":"_fromTokenId","type":"uint256","indexed":false,"internalType":"uint256"},{"name":"_toTokenId","type":"uint256","indexed":false,"internalType":"uint256"}],"anonymous":false},{"type":"event","name":"MetadataUpdate","inputs":[{"name":"_tokenId","type":"uint256","indexed":false,"internalType":"uint256"}],"anonymous":false},{"type":"event","name":"OwnershipTransferred","inputs":[{"name":"previousOwner","type":"address","indexed":true,"internalType":"address"},{"name":"newOwner","type":"address","indexed":true,"internalType":"address"}],"anonymous":false},{"type":"event","name":"ReceiptBurned","inputs":[{"name":"tokenId","type":"uint256","indexed":true,"internalType":"uint256"},{"name":"donationId","type":"uint256","indexed":true,"internalType":"uint256"},{"name":"timestamp","type":"uint256","indexed":false,"internalType":"uint256"}],"anonymous":false},{"type":"event","name":"ReceiptMinted","inputs":[{"name":"donor","type":"address","indexed":true,"internalType":"address"},{"name":"tokenId","type":"uint256","indexed":true,"internalType":"uint256"},{"name":"donationId","type":"uint256","indexed":true,"internalType":"uint256"},{"name":"tokenURI","type":"string","indexed":false,"internalType":"string"},{"name":"timestamp","type":"uint256","indexed":false,"internalType":"uint256"}],"anonymous":false},{"type":"event","name":"Transfer","inputs":[{"name":"from","type":"address","indexed":true,"internalType":"address"},{"name":"to","type":"address","indexed":true,"internalType":"address"},{"name":"tokenId","type":"uint256","indexed":true,"internalType":"uint256"}],"anonymous":false},{"type":"error","name":"ERC721IncorrectOwner","inputs":[{"name":"sender","type":"address","internalType":"address"},{"name":"tokenId","type":"uint256","internalType":"uint256"},{"name":"owner","type":"address","internalType":"address"}]},{"type":"error","name":"ERC721InsufficientApproval","inputs":[{"name":"operator","type":"address","internalType":"address"},{"name":"tokenId","type":"uint256","internalType":"uint256"}]},{"type":"error","name":"ERC721InvalidApprover","inputs":[{"name":"approver","type":"address","internalType":"address"}]},{"type":"error","name":"ERC721InvalidOperator","inputs":[{"name":"operator","type":"address","internalType":"address"}]},{"type":"error","name":"ERC721InvalidOwner","inputs":[{"name":"owner","type":"address","internalType":"address"}]},{"type":"error","name":"ERC721InvalidReceiver","inputs":[{"name":"receiver","type":"address","internalType":"address"}]},{"type":"error","name":"ERC721InvalidSender","inputs":[{"name":"sender","type":"address","internalType":"address"}]},{"type":"error","name":"ERC721NonexistentToken","inputs":[{"name":"tokenId","type":"uint256","internalType":"uint256"}]},{"type":"error","name":"OwnableInvalidOwner","inputs":[{"name":"owner","type":"address","internalType":"address"}]},{"type":"error","name":"OwnableUnauthorizedAccount","inputs":[{"name":"account","type":"address","internalType":"address"}]}],"bytecode":{"object":"0x60803462000383576001600160401b0390604090808201838111828210176200036f5782526016815260207f5472757374566f6963652054617820526563656970740000000000000000000081830152825193838501858110828211176200036f578452600491828652632a2b2a2960e11b818701528351908282116200027b575f54916001958684811c9416801562000364575b8385101462000351578190601f94858111620002fe575b5083908583116001146200029a575f926200028e575b50505f19600383901b1c191690861b175f555b86519283116200027b5784548581811c9116801562000270575b828210146200025d5782811162000215575b5080918311600114620001ad575081929394955f92620001a1575b50505f19600383901b1c191690831b1782555b33156200018b575060078054336001600160a01b0319821681179092559251926001600160a01b03167f8be0079c531659141344cd1fd0a4f28419497f9722a3daafe3b4186f6b6457e05f80a3600855611aea9081620003888239f35b6024905f845191631e4fbdf760e01b8352820152fd5b015190505f806200011b565b90601f19831696855f52825f20925f905b898210620001fd5750508386979896959610620001e4575b505050811b0182556200012e565b01515f1960f88460031b161c191690555f8080620001d6565b808885968294968601518155019501930190620001be565b855f52815f208380860160051c82019284871062000253575b0160051c019086905b8281106200024757505062000100565b5f815501869062000237565b925081926200022e565b602285634e487b7160e01b5f525260245ffd5b90607f1690620000ee565b604184634e487b7160e01b5f525260245ffd5b015190505f80620000c1565b90889350601f198316915f8052855f20925f5b87828210620002e75750508411620002ce575b505050811b015f55620000d4565b01515f1960f88460031b161c191690555f8080620002c0565b8385015186558c97909501949384019301620002ad565b9091505f8052835f208580850160051c82019286861062000347575b918a91869594930160051c01915b82811062000338575050620000ab565b5f81558594508a910162000328565b925081926200031a565b602286634e487b7160e01b5f525260245ffd5b93607f169362000094565b634e487b7160e01b5f52604160045260245ffd5b5f80fdfe6080604081815260049182361015610015575f80fd5b5f3560e01c90816301ffc9a714610d5f5750806306fdde0314610cb2578063081812fc14610c7a578063095ea7b314610b9f57806318160ddd14610b6257806318e97fd114610b165780631ba72d45146106a057806323b872dd14610aff5780633d18f65214610ad657806342842e0e14610aa85780634b85627814610a695780635b8bb6c7146108205780636352211e146107f15780636dd08dea146107ca57806370a0823114610776578063715018a61461071b5780638da5cb5b146106f3578063911ec470146106c757806392a66ecc146106a0578063942c5875146104d157806395d89b41146103ee578063a22cb46514610337578063b88d4fde146102ca578063c87b56dd14610294578063e985e9c514610246578063ed2f53a514610224578063f2fde38b1461019a5763f6dbb0ad14610153575f80fd5b346101965760203660031901126101965760209135805f526002835261018560018060a01b03835f2054161515611236565b5f52600a8252805f20549051908152f35b5f80fd5b509034610196576020366003190112610196576101b5610e29565b906101be611698565b6001600160a01b0391821692831561020e575050600754826001600160601b0360a01b821617600755167f8be0079c531659141344cd1fd0a4f28419497f9722a3daafe3b4186f6b6457e05f80a3005b905f6024925191631e4fbdf760e01b8352820152fd5b50346101965760209061023f61023936610f4c565b91611279565b9051908152f35b5034610196578060031936011261019657602090610262610e29565b61026a610e3f565b9060018060a01b038091165f5260058452825f2091165f52825260ff815f20541690519015158152f35b5034610196576020366003190112610196576102b36102c6923561196e565b9051918291602083526020830190610e04565b0390f35b8234610196576080366003190112610196576102e4610e29565b6102ec610e3f565b6044359060643567ffffffffffffffff81116101965736602382011215610196576103359481602461032393369301359101610ec3565b9261032f838383610fdf565b33611824565b005b5034610196578060031936011261019657610350610e29565b90602435918215158093036101965733156103d8576001600160a01b03169283156103c35750335f526005602052805f20835f52602052805f2060ff1981541660ff8416179055519081527f17307eab39ab6107e8899845ad3d59bd9653f200f220920489ca2b5937696c3160203392a3005b836024925191630b61174360e31b8352820152fd5b815163a9fbf51f60e01b81525f81860152602490fd5b5034610196575f366003190112610196578051905f90826001926001549361041585610fa7565b90818452602095866001821691825f146104af575050600114610454575b50506102c69291610445910385610e85565b51928284938452830190610e04565b9085925060015f527fb10e2d527612073b26eecdfd717e6a320cf44b4afac2b0732d9fcbe2b7fa0cf6915f925b8284106104975750505082010181610445610433565b8054848a018601528895508794909301928101610481565b60ff19168682015292151560051b850190920192508391506104459050610433565b503461019657602080600319360112610196578235916104ef611698565b5f83815260028352819020546001600160a01b0394906105129086161515611236565b835f52600a8352815f205494855f52600984525f83812055845f52600a84525f83812055600b8452825f2060ff1981541690556002845280835f205416151580610699575b80610688575b61062a57845f5260028452825f205416845f82159283156105f9575b8282526002875285822080546001600160a01b03191690557fddf252ad1be2c89b69c2b068fc378daa952ba7f163c4a11628f55a4df523b3ef8280a46105e45750907fafa535335aeb46de469bb71a935b580ff9e809d0eddffeea83ee8e280f32e9ba9151428152a3005b836024925191637e27328960e01b8352820152fd5b5f83815260046020526040902080546001600160a01b03191690558082526003875285822082198154019055610579565b5082608492519162461bcd60e51b8352820152603360248201527f54686973207265636569707420697320736f756c626f756e6420616e642063616044820152721b9b9bdd081899481d1c985b9cd9995c9c9959606a1b6064820152fd5b50600b845260ff835f20541661055d565b505f610557565b503461019657602036600319011261019657602091355f5260098252805f20549051908152f35b503461019657602036600319011261019657602091355f52600b825260ff815f20541690519015158152f35b5034610196575f3660031901126101965760075490516001600160a01b039091168152602090f35b34610196575f36600319011261019657610733611698565b600780546001600160a01b031981169091555f906001600160a01b03167f8be0079c531659141344cd1fd0a4f28419497f9722a3daafe3b4186f6b6457e08280a3005b5034610196576020366003190112610196576001600160a01b03610798610e29565b1680156107b457602092505f5260038252805f20549051908152f35b81516322718ad960e21b81525f81850152602490fd5b503461019657602036600319011261019657602091355f52600a8252805f20549051908152f35b50346101965760203660031901126101965761080f6020923561165e565b90516001600160a01b039091168152f35b5090346101965760603660031901126101965780359067ffffffffffffffff90818311610196573660238401121561019657828101359160249161086384610f8f565b9461087087519687610e85565b848652602094848688019160051b83010191368311610196578501905b828210610a4a5750505082359282841161019657366023850112156101965783820135936108ba85610f8f565b946108c789519687610e85565b808652828787019160051b830101913683116101965783889101915b838310610a3a57505050506044358381116101965736602382011215610196578083013561091081610f8f565b9461091d8a519687610e85565b818652838887019260051b8401019236841161019657848101925b848410610a1457505050505061094c611698565b8551845181149081610a09575b50156109c75750505f5b845181101561033557806109796001928561120e565b515f5260098552865f205415610990575b01610963565b6109c1828060a01b036109a3838961120e565b51166109af838761120e565b516109ba848761120e565b5191611279565b5061098a565b865162461bcd60e51b81529182018590526018908201527f4172726179206c656e67746873206d757374206d6174636800000000000000006044820152606490fd5b90508351145f610959565b8335838111610196578a91610a2f8392893691870101610ef9565b815201930192610938565b82358152918101918891016108e3565b81356001600160a01b038116810361019657815290860190860161088d565b503461019657602090610a8c610a7e36610f4c565b91610a87611698565b611279565b90815f52600b8352805f20600160ff1982541617905551908152f35b50346101965761033590610abb36610f17565b91925192610ac884610e55565b5f845261032f838383610fdf565b503461019657602036600319011261019657602091355f5260098252805f205415159051908152f35b3461019657610335610b1036610f17565b91610fdf565b50346101965736600319011261019657803560243567ffffffffffffffff81116101965761033592610b4a91369101610ef9565b90610b53611698565b610b5c8161165e565b506116c4565b5034610196575f366003190112610196576008545f19810191908211610b8c576020925051908152f35b601183634e487b7160e01b5f525260245ffd5b5034610196578060031936011261019657610bb8610e29565b91602435610bc58161165e565b33151580610c67575b80610c40575b610c2a576001600160a01b039485169482918691167f8c5be1e5ebec7d5bd14f71427d1e84f3dd0314c0f7b2291e5b200ac8c7c3b9255f80a45f526020525f20906001600160601b0360a01b8254161790555f80f35b835163a9fbf51f60e01b81523381850152602490fd5b5060018060a01b0381165f526005602052835f20335f5260205260ff845f20541615610bd4565b506001600160a01b038116331415610bce565b5034610196576020366003190112610196578160209235610c9a8161165e565b505f52825260018060a01b03815f2054169051908152f35b5034610196575f366003190112610196578051905f90825f5492610cd584610fa7565b808352602094600190866001821691825f146104af575050600114610d065750506102c69291610445910385610e85565b5f80805286935091907f290decd9548b62a8d60345a988386fc84ba6bc95484008f6362f93160ef3e5635b828410610d475750505082010181610445610433565b8054848a018601528895508794909301928101610d31565b833461019657602036600319011261019657359063ffffffff60e01b821680920361019657602091632483248360e11b8114908115610da0575b5015158152f35b6380ac58cd60e01b811491508115610dd2575b8115610dc1575b5083610d99565b6301ffc9a760e01b14905083610dba565b635b5e139f60e01b81149150610db3565b5f5b838110610df45750505f910152565b8181015183820152602001610de5565b90602091610e1d81518092818552858086019101610de3565b601f01601f1916010190565b600435906001600160a01b038216820361019657565b602435906001600160a01b038216820361019657565b6020810190811067ffffffffffffffff821117610e7157604052565b634e487b7160e01b5f52604160045260245ffd5b90601f8019910116810190811067ffffffffffffffff821117610e7157604052565b67ffffffffffffffff8111610e7157601f01601f191660200190565b929192610ecf82610ea7565b91610edd6040519384610e85565b829481845281830111610196578281602093845f960137010152565b9080601f8301121561019657816020610f1493359101610ec3565b90565b6060906003190112610196576001600160a01b0390600435828116810361019657916024359081168103610196579060443590565b6060600319820112610196576004356001600160a01b03811681036101965791602435916044359067ffffffffffffffff821161019657610f1491600401610ef9565b67ffffffffffffffff8111610e715760051b60200190565b90600182811c92168015610fd5575b6020831014610fc157565b634e487b7160e01b5f52602260045260245ffd5b91607f1691610fb6565b6001600160a01b0391821692909183156111f657815f526020926002845260409482865f2054161515806111ee575b806111dd575b61117d578390815f526002865283875f20541695331515806110eb575b50600290876110ba575b825f5260038152885f2060018154019055835f5252865f20816001600160601b0360a01b825416179055857fddf252ad1be2c89b69c2b068fc378daa952ba7f163c4a11628f55a4df523b3ef5f80a416928383036110995750505050565b6064945051926364283d7b60e01b8452600484015260248301526044820152fd5b5f84815260046020526040812080546001600160a01b03191690558881526003825289902080545f1901905561103b565b919250908061113c575b15611103579084915f611031565b868587611120576024915190637e27328960e01b82526004820152fd5b604491519063177e802f60e01b82523360048301526024820152fd5b503386148015611161575b806110f55750845f52600481523384885f205416146110f5565b50855f5260058152865f20335f52815260ff875f205416611147565b855162461bcd60e51b815260048101869052603360248201527f54686973207265636569707420697320736f756c626f756e6420616e642063616044820152721b9b9bdd081899481d1c985b9cd9995c9c9959606a1b6064820152608490fd5b50600b855260ff865f205416611014565b50600161100e565b604051633250574960e11b81525f6004820152602490fd5b80518210156112225760209160051b010190565b634e487b7160e01b5f52603260045260245ffd5b1561123d57565b60405162461bcd60e51b8152602060048201526014602482015273151bdad95b88191bd95cc81b9bdd08195e1a5cdd60621b6044820152606490fd5b91611282611698565b6001600160a01b038381169190821561161957835f52602060098152604091825f20546115c55783511561158257600854965f1980891461156e57600189016008558451926112d084610e55565b5f8452895f526002855280865f205416151580611566575b80611555575b61117d57878a91825f5260028752875f2054168015159384611524575b505f82815260038852888120805460010190558381526002885288812080546001600160a01b031916841790557fddf252ad1be2c89b69c2b068fc378daa952ba7f163c4a11628f55a4df523b3ef9080a461150d573b6113ce575b50917f3140c5e562686545f5ac43edf590b6b25d6e5bdba33d876efda8a22828921b319186949361139783876116c4565b865f526009815285825f2055855f52600a815286825f20556113c28251938385948552840190610e04565b9042908301520390a490565b8295929794969391975188818061140d630a85bd0160e11b958683523360048401525f6024840152896044840152608060648401526084830190610e04565b03815f8c5af15f91816114cd575b50611478578888883d15611470573d9261143484610ea7565b9361144183519586610e85565b84523d5f8286013e5b8351938461146a578251633250574960e11b815260048101859052602490fd5b84925001fd5b60609261144a565b63ffffffff60e09993959896999794971b16036114b5577f3140c5e562686545f5ac43edf590b6b25d6e5bdba33d876efda8a22828921b31611366565b8151633250574960e11b815260048101859052602490fd5b9091508981813d8311611506575b6114e58183610e85565b8101031261019657516001600160e01b03198116810361019657905f61141b565b503d6114db565b83516339e3563760e11b81525f6004820152602490fd5b5f84815260046020526040902080546001600160a01b0319169055815f5260038852885f209081540190555f61130b565b50600b855260ff865f2054166112ee565b5060016112e8565b634e487b7160e01b5f52601160045260245ffd5b50606491519062461bcd60e51b82526004820152601960248201527f546f6b656e205552492063616e6e6f7420626520656d707479000000000000006044820152fd5b50608491519062461bcd60e51b82526004820152602860248201527f5265636569707420616c7265616479206d696e74656420666f722074686973206044820152673237b730ba34b7b760c11b6064820152fd5b60405162461bcd60e51b815260206004820152601b60248201527f43616e6e6f74206d696e7420746f207a65726f206164647265737300000000006044820152606490fd5b5f818152600260205260409020546001600160a01b0316908115611680575090565b60249060405190637e27328960e01b82526004820152fd5b6007546001600160a01b031633036116ac57565b60405163118cdaa760e01b8152336004820152602490fd5b919091805f526020906006825260405f2084519467ffffffffffffffff8611610e71576116f18254610fa7565b601f81116117e1575b508390601f871160011461175d579580917ff8e1a15aba9398e019f0b49df1a4fde98ee17ae345cb5f6b5e2c27f5033e8ce796975f92611752575b50508160011b915f199060031b1c19161790555b604051908152a1565b015190505f80611735565b90601f19871691835f52855f20925f5b8181106117ca57509160019391897ff8e1a15aba9398e019f0b49df1a4fde98ee17ae345cb5f6b5e2c27f5033e8ce7999a94106117b2575b505050811b019055611749565b01515f1960f88460031b161c191690555f80806117a5565b92938760018192878601518155019501930161176d565b825f52845f20601f880160051c81019186891061181a575b601f0160051c01905b81811061180f57506116fa565b5f8155600101611802565b90915081906117f9565b9293909193843b611837575b5050505050565b604051630a85bd0160e11b8082526001600160a01b03958616600483015293851660248201526044810191909152608060648201526020959490931693929085908290819061188a906084830190610e04565b03815f885af15f918161192e575b506118f7575050503d5f146118ef573d916118b283610ea7565b926118c06040519485610e85565b83523d5f8285013e5b825192836118ea57604051633250574960e11b815260048101849052602490fd5b019050fd5b6060916118c9565b9193506001600160e01b03199091160361191657505f80808080611830565b60249060405190633250574960e11b82526004820152fd5b9091508581813d8311611967575b6119468183610e85565b8101031261019657516001600160e01b03198116810361019657905f611898565b503d61193c565b6119778161165e565b50604080519161198683610e55565b5f8352805f52602060068152825f20938351945f868254916119a783610fa7565b9283835286830194600191886001821691825f14611a94575050600114611a57575b50506119d792500387610e85565b8151958615611a4d578051611a1357505050506119f591925061165e565b505f8151611a0281610e55565b5251611a0d81610e55565b5f815290565b9091929350611a4186611a32610f149751988996888089019101610de3565b84019151809386840190610de3565b01038084520182610e85565b9550505050505090565b8792505f52815f20905f915b858310611a7b5750506119d793508201015f806119c9565b8194848483969596549201015201910189928792611a63565b92509350506119d794915060ff19168552151560051b8201015f806119c956fea264697066735822122071091db01fec7bec39a9d8acb1c86ea4ec3092a7fed6baa8a18b6685f0bcc5e664736f6c63430008180033","linkReferences":{}},"methodIdentifiers":{"approve(address,uint256)":"095ea7b3","balanceOf(address)":"70a08231","batchMintReceipts(address[],uint256[],string[])":"5b8bb6c7","burnReceipt(uint256)":"942c5875","donationToToken(uint256)":"1ba72d45","getApproved(uint256)":"081812fc","getDonationByToken(uint256)":"f6dbb0ad","getReceiptByDonation(uint256)":"92a66ecc","isApprovedForAll(address,address)":"e985e9c5","isSoulbound(uint256)":"911ec470","mintReceipt(address,uint256,string)":"ed2f53a5","mintSoulboundReceipt(address,uint256,string)":"4b856278","name()":"06fdde03","owner()":"8da5cb5b","ownerOf(uint256)":"6352211e","receiptExists(uint256)":"3d18f652","renounceOwnership()":"715018a6","safeTransferFrom(address,address,uint256)":"42842e0e","safeTransferFrom(address,address,uint256,bytes)":"b88d4fde","setApprovalForAll(address,bool)":"a22cb465","supportsInterface(bytes4)":"01ffc9a7","symbol()":"95d89b41","tokenToDonation(uint256)":"6dd08dea","tokenURI(uint256)":"c87b56dd","totalSupply()":"18160ddd","transferFrom(address,address,uint256)":"23b872dd","transferOwnership(address)":"f2fde38b","updateTokenURI(uint256,string)":"18e97fd1"},"id":41}