{"abi":[{"type":"constructor","inputs":[],"stateMutability":"nonpayable"},{"type":"function","name":"createMilestone","inputs":[{"name":"campaignId","type":"uint256","internalType":"uint256"},{"name":"milestoneId","type":"uint256","internalType":"uint256"},{"name":"targetAmountCents","type":"uint256","internalType":"uint256"}],"outputs":[],"stateMutability":"nonpayable"},{"type":"function","name":"failMilestone","inputs":[{"name":"campaignId","type":"uint256","internalType":"uint256"},{"name":"milestoneId","type":"uint256","internalType":"uint256"},{"name":"reason","type":"string","internalType":"string"}],"outputs":[],"stateMutability":"nonpayable"},{"type":"function","name":"getMilestone","inputs":[{"name":"campaignId","type":"uint256","internalType":"uint256"},{"name":"milestoneId","type":"uint256","internalType":"uint256"}],"outputs":[{"name":"","type":"tuple","internalType":"struct MilestoneTreasury.Milestone","components":[{"name":"campaignId","type":"uint256","internalType":"uint256"},{"name":"milestoneId","type":"uint256","internalType":"uint256"},{"name":"targetAmountCents","type":"uint256","internalType":"uint256"},{"name":"status","type":"uint8","internalType":"enum MilestoneTreasury.Status"},{"name":"createdAt","type":"uint256","internalType":"uint256"},{"name":"releasedAt","type":"uint256","internalType":"uint256"}]}],"stateMutability":"view"},{"type":"function","name":"milestoneCounts","inputs":[{"name":"","type":"uint256","internalType":"uint256"}],"outputs":[{"name":"","type":"uint256","internalType":"uint256"}],"stateMutability":"view"},{"type":"function","name":"milestones","inputs":[{"name":"","type":"uint256","internalType":"uint256"},{"name":"","type":"uint256","internalType":"uint256"}],"outputs":[{"name":"campaignId","type":"uint256","internalType":"uint256"},{"name":"milestoneId","type":"uint256","internalType":"uint256"},{"name":"targetAmountCents","type":"uint256","internalType":"uint256"},{"name":"status","type":"uint8","internalType":"enum MilestoneTreasury.Status"},{"name":"createdAt","type":"uint256","internalType":"uint256"},{"name":"releasedAt","type":"uint256","internalType":"uint256"}],"stateMutability":"view"},{"type":"function","name":"owner","inputs":[],"outputs":[{"name":"","type":"address","internalType":"address"}],"stateMutability":"view"},{"type":"function","name":"releaseFunds","inputs":[{"name":"campaignId","type":"uint256","internalType":"uint256"},{"name":"milestoneId","type":"uint256","internalType":"uint256"},{"name":"grossAmountCents","type":"uint256","internalType":"uint256"},{"name":"feeAmountCents","type":"uint256","internalType":"uint256"}],"outputs":[],"stateMutability":"nonpayable"},{"type":"function","name":"renounceOwnership","inputs":[],"outputs":[],"stateMutability":"nonpayable"},{"type":"function","name":"submitEvidence","inputs":[{"name":"campaignId","type":"uint256","internalType":"uint256"},{"name":"milestoneId","type":"uint256","internalType":"uint256"},{"name":"ipfsHash","type":"string","internalType":"string"}],"outputs":[],"stateMutability":"nonpayable"},{"type":"function","name":"transferOwnership","inputs":[{"name":"newOwner","type":"address","internalType":"address"}],"outputs":[],"stateMutability":"nonpayable"},{"type":"function","name":"verifyMilestone","inputs":[{"name":"campaignId","type":"uint256","internalType":"uint256"},{"name":"milestoneId","type":"uint256","internalType":"uint256"},{"name":"fieldAgent","type":"address","internalType":"address"},{"name":"trustScore","type":"uint256","internalType":"uint256"}],"outputs":[],"stateMutability":"nonpayable"},{"type":"event","name":"EvidenceSubmitted","inputs":[{"name":"campaignId","type":"uint256","indexed":true,"internalType":"uint256"},{"name":"milestoneId","type":"uint256","indexed":true,"internalType":"uint256"},{"name":"ipfsHash","type":"string","indexed":false,"internalType":"string"},{"name":"timestamp","type":"uint256","indexed":false,"internalType":"uint256"}],"anonymous":false},{"type":"event","name":"FundsReleased","inputs":[{"name":"campaignId","type":"uint256","indexed":true,"internalType":"uint256"},{"name":"milestoneId","type":"uint256","indexed":true,"internalType":"uint256"},{"name":"grossAmountCents","type":"uint256","indexed":false,"internalType":"uint256"},{"name":"feeAmountCents","type":"uint256","indexed":false,"internalType":"uint256"},{"name":"netAmountCents","type":"uint256","indexed":false,"internalType":"uint256"},{"name":"timestamp","type":"uint256","indexed":false,"internalType":"uint256"}],"anonymous":false},{"type":"event","name":"MilestoneCreated","inputs":[{"name":"campaignId","type":"uint256","indexed":true,"internalType":"uint256"},{"name":"milestoneId","type":"uint256","indexed":true,"internalType":"uint256"},{"name":"targetAmountCents","type":"uint256","indexed":false,"internalType":"uint256"},{"name":"timestamp","type":"uint256","indexed":false,"internalType":"uint256"}],"anonymous":false},{"type":"event","name":"MilestoneFailed","inputs":[{"name":"campaignId","type":"uint256","indexed":true,"internalType":"uint256"},{"name":"milestoneId","type":"uint256","indexed":true,"internalType":"uint256"},{"name":"reason","type":"string","indexed":false,"internalType":"string"},{"name":"timestamp","type":"uint256","indexed":false,"internalType":"uint256"}],"anonymous":false},{"type":"event","name":"MilestoneVerified","inputs":[{"name":"campaignId","type":"uint256","indexed":true,"internalType":"uint256"},{"name":"milestoneId","type":"uint256","indexed":true,"internalType":"uint256"},{"name":"fieldAgent","type":"address","indexed":true,"internalType":"address"},{"name":"trustScore","type":"uint256","indexed":false,"internalType":"uint256"},{"name":"timestamp","type":"uint256","indexed":false,"internalType":"uint256"}],"anonymous":false},{"type":"event","name":"OwnershipTransferred","inputs":[{"name":"previousOwner","type":"address","indexed":true,"internalType":"address"},{"name":"newOwner","type":"address","indexed":true,"internalType":"address"}],"anonymous":false},{"type":"error","name":"OwnableInvalidOwner","inputs":[{"name":"owner","type":"address","internalType":"address"}]},{"type":"error","name":"OwnableUnauthorizedAccount","inputs":[{"name":"account","type":"address","internalType":"address"}]}],"bytecode":{"object":"0x60808060405234610078573315610063575f8054336001600160a01b03198216811783556040519290916001600160a01b0316907f8be0079c531659141344cd1fd0a4f28419497f9722a3daafe3b4186f6b6457e09080a36109d3908161007d8239f35b631e4fbdf760e01b81525f6004820152602490fd5b5f80fdfe6080604081815260049182361015610015575f80fd5b5f3560e01c9081631c376c63146107d85750806325de5efc1461067f5780632a5127b3146106585780633344eaf714610542578063715018a6146104eb5780638b69fa0a146103d95780638da5cb5b146103b25780638ed9895c146102ca57806397ec2a91146101ae578063af0073631461012a5763f2fde38b14610098575f80fd5b34610126576020366003190112610126576001600160a01b03823581811693919290849003610126576100c9610972565b83156101105750505f54826bffffffffffffffffffffffff60a01b8216175f55167f8be0079c531659141344cd1fd0a4f28419497f9722a3daafe3b4186f6b6457e05f80a3005b905f6024925191631e4fbdf760e01b8352820152fd5b5f80fd5b5034610126577f20a09501bdda779d6aad117024ab6ef43e3bf459bc182578cf0b2c74ad2a117f6003926101a96101603661087c565b9392969197909461016f610972565b875f526001602052825f20895f52602052610191835f20918201541515610902565b01805460ff1916600617905551928392429184610944565b0390a3005b50346101265760803660031901126101265781359060243592604435916064356101d6610972565b845f526001602052815f20865f52602052815f206101f8848201541515610902565b60038101805460ff811660078110156102b757860361027b5760059060ff1916179055600542910155808403928484116102685750815193845260208401528201524260608201527f047b9985fb4af00225fb0620586cfb0ede1ea2fe3aaadbbca2dedef5535adbcb90608090a3005b601190634e487b7160e01b5f525260245ffd5b845162461bcd60e51b81526020818801526016602482015275135a5b195cdd1bdb99481b9bdd081d995c9a599a595960521b6044820152606490fd5b602187634e487b7160e01b5f525260245ffd5b5034610126576102d936610845565b905f60a06102e56108ce565b828152826020820152828682015282606082015282608082015201525f526001602052815f20905f52602052805f209061031d6108ce565b91805483526001810154916020840192835260028201549080850191825260ff600384015416916060860192600781101561039f5790600560c0988594936103919652860154956080890196875201549560a08801968752825197518852516020880152519086015251606085019061085b565b5160808301525160a0820152f35b602188634e487b7160e01b5f525260245ffd5b5034610126575f366003190112610126575f5490516001600160a01b039091168152602090f35b509034610126576103e93661087c565b9091936103f4610972565b835f526001602052855f20855f526020526003865f20610418838201541515610902565b019081549060ff821660078110156104d85780159081156104cd575b50156104795750956101a99160027f769e3f947a2993c1852c2814c0aed6e589d0b5c2f83d5eb4d73b4de879a72cf496979860ff191617905551928392429184610944565b608490602089519162461bcd60e51b8352820152602860248201527f43616e6e6f74207375626d69742065766964656e636520696e2063757272656e604482015267742073746174757360c01b6064820152fd5b60019150145f610434565b602182634e487b7160e01b5f525260245ffd5b34610126575f36600319011261012657610503610972565b5f80546001600160a01b0319811682556001600160a01b03167f8be0079c531659141344cd1fd0a4f28419497f9722a3daafe3b4186f6b6457e08280a3005b5034610126576080366003190112610126578135602435916044359360018060a01b03851680950361012657610576610972565b825f526001602052815f20845f526020526003825f2061059a838201541515610902565b0190815460ff81166007811015610645576002811490811561063a575b50156105f75760ff1916179055805160643581524260208201527f11c538693ba5c19a3327d605d8de62b50851973af724907dc0e0e7ce2e1fa5489190a4005b835162461bcd60e51b8152602081840152601a60248201527f45766964656e6365206e6f7420796574207375626d69747465640000000000006044820152606490fd5b60039150145f6105b7565b602183634e487b7160e01b5f525260245ffd5b503461012657602036600319011261012657602091355f5260028252805f20549051908152f35b5034610126576060366003190112610126578135602435916044356106a2610972565b825f52602060018152825f20855f52815285835f200154610796576106c56108ce565b848152818101868152848201848152606083015f8152608084019142835260a08501935f8552895f5260018752885f208b5f528752885f209551865551600186015551600285015560038401905160078110156107835790600593929160ff80198354169116179055518984015551910155835f5260028152825f208054965f198814610268575060017fdd9c8b628c5ee6e97f53a818750c89e0ff818c9250075b01cb58b42d9985894395969701905582519182524290820152a3005b60218b634e487b7160e01b5f525260245ffd5b8560649184519162461bcd60e51b8352820152601c60248201527f4d696c6573746f6e6520616c72656164792072656769737465726564000000006044820152fd5b919050346101265760c0926107ec36610845565b905f526001602052825f20905f52602052610839825f2091825493600184015490600285015491600560ff600388015416948701549601549688526020880152860152606085019061085b565b608083015260a0820152f35b6040906003190112610126576004359060243590565b9060078210156108685752565b634e487b7160e01b5f52602160045260245ffd5b90606060031983011261012657600435916024359160443567ffffffffffffffff9283821161012657806023830112156101265781600401359384116101265760248483010111610126576024019190565b6040519060c0820182811067ffffffffffffffff8211176108ee57604052565b634e487b7160e01b5f52604160045260245ffd5b1561090957565b60405162461bcd60e51b8152602060048201526013602482015272135a5b195cdd1bdb99481b9bdd08199bdd5b99606a1b6044820152606490fd5b9392918060609160209360408852816040890152838801375f828288010152601f8019910116850101930152565b5f546001600160a01b0316330361098557565b60405163118cdaa760e01b8152336004820152602490fdfea264697066735822122053e1eee5af5e6dd2e593bffedd040f052b141ba02120cd30c733d1ed25c353fc64736f6c63430008180033","linkReferences":{}},"methodIdentifiers":{"createMilestone(uint256,uint256,uint256)":"25de5efc","failMilestone(uint256,uint256,string)":"af007363","getMilestone(uint256,uint256)":"8ed9895c","milestoneCounts(uint256)":"2a5127b3","milestones(uint256,uint256)":"1c376c63","owner()":"8da5cb5b","releaseFunds(uint256,uint256,uint256,uint256)":"97ec2a91","renounceOwnership()":"715018a6","submitEvidence(uint256,uint256,string)":"8b69fa0a","transferOwnership(address)":"f2fde38b","verifyMilestone(uint256,uint256,address,uint256)":"3344eaf7"},"id":18}